:0300000002098171
:0C098100787FE4F6D8FD75811A0209C8E1
:0A0AC600C0F9A4B0999282F8809064
:040AD80002190000FF
:100A5E00E4FDFCE4FBFAC3EB9FEE6480F8EA6480ED
:100A6E009850070BBB00010A80EC0DBD00010CED88
:050A7E0064644C70DE11
:010A83002250
:020A84008F0ED3
:100A8600780F7C007D007BFF7A0A79C67E007F0A9C
:100A96001208D0E50EC3940A5008740F250EF8E626
:020AA600F580D9
:010AA800222B
:03000300020AA945
:100AA900C0E0C2AF051AE51A70020519D2AFD0E04D
:010AB900320A
:040A0D008E088F09B7
:100A1100750C08E4F50AF50BAE08AF097C007D0AF8
:100A21001208F68D0DAE08AF097C007D0A1208F69A
:100A31008E088F09850CA0AF0D120A847F057E00F8
:100A4100120A5EE50CC313F50C050BE50B700205EC
:0C0A51000AC39404E50A6480948040BC51
:010A5D002276
:080AD000D2B275A881D2882280
:0C0ABA00120AD0AF1AAE19120A0D80F714
:10098D00020ABAE493A3F8E493A34003F68001F2BC
:10099D0008DFF48029E493A3F85407240CC8C3336B
:1009AD00C4540F4420C8834004F456800146F6DF3A
:1009BD00E4800B0102040810204080900AD8E47EE8
:1009CD00019360BCA3FF543F30E509541FFEE4932F
:1009DD00A360010ECF54C025E060A840B8E493A3F6
:1009ED00FAE493A3F8E493A3C8C582C8CAC583CA21
:1009FD00F0A3C8C582C8CAC583CADFE9DEE780BED9
:010ADC000019
:10080000E709F608DFFA8046E709F208DFFA803EDA
:1008100088828C83E709F0A3DFFA8032E309F608C7
:10082000DFFA8078E309F208DFFA807088828C832F
:10083000E309F0A3DFFA806489828A83E0A3F608E3
:10084000DFFA805889828A83E0A3F208DFFA804CBD
:1008500080D280FA80C680D4806980F28033801094
:1008600080A680EA809A80A880DA80E280CA8033FD
:1008700089828A83ECFAE493A3C8C582C8CCC58375
:10088000CCF0A3C8C582C8CCC583CCDFE9DEE78045
:100890000D89828A83E493A3F608DFF9ECFAA9F0C4
:1008A000EDFB2289828A83ECFAE0A3C8C582C8CC1A
:1008B000C583CCF0A3C8C582C8CCC583CCDFEADE33
:1008C000E880DB89828A83E493A3F208DFF980CC95
:1008D00088F0EF60010E4E60C388F0ED2402B4048E
:1008E0000050B9F582EB2402B4040050AF23234535
:0608F00082239008507302
:1008F600C2D5EC30E709B2D5E4C39DFDE49CFCEE1D
:1009060030E715B2D5E4C39FFFE49EFE12092CC35F
:10091600E49DFDE49CFC800312092C30D507C3E45A
:060926009FFFE49EFE228B
:10092C00BC000BBE0029EF8DF084FFADF022E4CCAF
:10093C00F875F008EF2FFFEE33FEEC33FCEE9DEC78
:10094C00984005FCEE9DFE0FD5F0E9E4CEFD22EDBE
:10095C00F8F5F0EE8420D21CFEADF075F008EF2F08
:10096C00FFED33FD4007985006D5F0F222C398FDF9
:05097C000FD5F0EA2296
:00000001FF
