:030000000208A74C
:0C08A700787FE4F6D8FD7581270208EE8A
:100A2A00140C00C000F900A400B0009900920082E2
:060A3A0000F800800090AE
:100A1200E4FDFCC3ED9FEE6480F8EC64809850071F
:070A22000DBD00010C80EC8A
:010A290022AA
:1009F000AE24AF257C007D0A1209337C007D0A12EB
:100A000009338D0AAE24AF257C007D0A1209338D8F
:020A10000922B9
:1009C700EF64014E7004C2B3C2B2EF64024E70040A
:1009D700C2B3D2B2EF64034E7004D2B3C2B2EF64B3
:0909E700044E7004D2B3D2B22216
:0F0A4100758920758DFD759850D28E75A89022FD
:0300230002098847
:10098800C0E0C0D0309833859908C298E50824CFD4
:10099800601214601714601C2403701E7521007502
:1009A80022008016752100752201800E75210075C0
:0F09B80022028006752100752203D0D0D0E032D4
:10080000D2B7120A41E4F521F52275A001E52225AF
:10081000E0240CF808E6F580C2A47FE87E03120A03
:1008200012C2B5C2B6D2B4E5222430F50BF599E573
:10083000222401FFE43521FE1209C77F647E0012E5
:100840000A12D2B5D2B67FF40E120A12C2B5C2B6DF
:1008500030B4FD7F647E00120A12D2B4AF908E24B1
:100860008F251209F075A002E50A25E0240CF8088E
:10087000E6F580E50A2430F50BF599D2A47FF47EE5
:1008800001120A1275A004E50925E0240CF808E617
:10089000F580E5092430F50BF599D2A4120A12303F
:0708A00099FDC29902080A4C
:1008B300020800E493A3F8E493A34003F68001F253
:1008C30008DFF48029E493A3F85407240CC8C33346
:1008D300C4540F4420C8834004F456800146F6DF15
:1008E300E4800B0102040810204080900A2AE47E71
:1008F300019360BCA3FF543F30E509541FFEE4930A
:10090300A360010ECF54C025E060A840B8E493A3D0
:10091300FAE493A3F8E493A3C8C582C8CAC583CAFB
:10092300F0A3C8C582C8CAC583CADFE9DEE780BEB3
:010A400000B5
:10093300BC000BBE0029EF8DF084FFADF022E4CCA8
:10094300F875F008EF2FFFEE33FEEC33FCEE9DEC71
:10095300984005FCEE9DFE0FD5F0E9E4CEFD22EDB7
:10096300F8F5F0EE8420D21CFEADF075F008EF2F01
:10097300FFED33FD4007985006D5F0F222C398FDF2
:050983000FD5F0EA228F
:00000001FF
