:030000000208D51E
:0C08D500787FE4F6D8FD7581070208C1A9
:1008A100E4FDFCC3ED9FEC9E5015E4FBFA0BBB008D
:0F08B100010AEB64784A70F50DBD00010C80E47C
:0108C0002215
:10080000EF14B4080040030208A090081875F00324
:10081000A4C58325F0C58373020830020836020898
:10082000470208580208660208740208820208900B
:10083000D280C287805ED281C287C286C285C284CE
:10084000C283C282C28022D282C287C286C285C2CD
:1008500084C283C280C28122D283C287C286C285FB
:10086000C284C2808036D284C287C286C285C280DA
:10087000C2838028D285C287C286C280C284C283D6
:10088000801AD286C287C280C285C284C283800C8D
:10089000D287C280C286C285C284C283C282C2811C
:0108A0002235
:1008C100E4F9AF011208007FF47E011208A109B911
:0408D10009F080ECBE
:00000001FF
