:030000000208EC07
:0C08EC00787FE4F6D8FD7581070208D87B
:1008B800E4FDFCC3ED9FEC9E5015E4FBFA0BBB0076
:0F08C800010AEB64784A70F50DBD00010C80E465
:0108D70022FE
:10080000EF14B4080040030208B790081875F0030D
:10081000A4C58325F0C5837302083002084102088D
:10082000520208630208740208850208960208A7AB
:10083000D280C287C286C285C284C283C282C2817C
:1008400022D281D280C287C286C285C284C283C2BC
:100850008222D282D280D281C287C286C285C284DD
:10086000C28322D283D280D282D281C287C286C280
:1008700085C28422D284D280D283D282D281C2879E
:10088000C286C28522D285D280D284D283D282D23D
:1008900081C287C28622D286D280D285D284D28378
:1008A000D282D281C28722D287D280D286D285D20A
:0808B00084D283D282D281229E
:1008D800E4F9AF011208007FF47E011208B809B9E3
:0408E80009F080ECA7
:00000001FF
