:03000000020800F3
:0C080000787FE4F6D8FD758124020847DB
:10096D00140A00C000F900A400B0009900920082A2
:06097D0000F8008000906C
:1008E100E4F520F52185201E85211FE4F522F5235D
:1008F10012093B1209560523E52370020522C39410
:1009010088E522941340E90521E52170020520C301
:0A0911009464E520940040CD80C6F8
:10091B00EF1FAC0670011ED39400EC94004010E462
:0F092B00F522F523E524C3947D50E5052480F5DE
:01093A00229A
:10093B00AE1EAF1F7C007D0A12088C8F09AE1EAF56
:0B094B001F7C007D0A12088C8D082222
:10095600E50825E0240AF808E6F580E50925E024FF
:070966000AF808E6F5A022E3
:10080C000208E1E493A3F8E493A34003F68001F219
:10081C0008DFF48029E493A3F85407240CC8C333ED
:10082C00C4540F4420C8834004F456800146F6DFBC
:10083C00E4800B010204081020408090096DE47ED6
:10084C00019360BCA3FF543F30E509541FFEE493B1
:10085C00A360010ECF54C025E060A840B8E493A378
:10086C00FAE493A3F8E493A3C8C582C8CAC583CAA3
:10087C00F0A3C8C582C8CAC583CADFE9DEE780BE5B
:010983000073
:10088C00BC000BBE0029EF8DF084FFADF022E4CC50
:10089C00F875F008EF2FFFEE33FEEC33FCEE9DEC19
:1008AC00984005FCEE9DFE0FD5F0E9E4CEFD22ED5F
:1008BC00F8F5F0EE8420D21CFEADF075F008EF2FA9
:1008CC00FFED33FD4007985006D5F0F222C398FD9A
:0508DC000FD5F0EA2237
:00000001FF
